:060000000A128A1110280B
:10000800FE00030E83160313AE000A08AF007F0834
:10001800B0000A128A118D2D0A128A11132883162C
:1000280003170A128A11EF270A128A11D8008316B9
:1000380003130A128A11EE270A128A11DE008316A8
:100048000317D601D70183160313D601D701D801A8
:10005800D901DA01DB01DC01DD0183120313EF01B1
:1000680083010A168A11D32C8316031720088039B6
:1000780083160313CC004C0883160317A500200829
:1000880083160313CC004C07CD004D0883160317C5
:10009800AB009F1F5028512852282B142B080319F6
:1000A8005628572866282B0A031D5B285C286428D5
:1000B8000030A00000309F0000309E0000309D00FE
:1000C8009F176E280030A00000309F0000309E006F
:1000D80000309D002408803983160313CC004C0897
:1000E80083160317A506240883160313CC004C07B0
:1000F800CD004D0883160317AA00A31F842885285E
:1001080086282A142A0803198A288B289A282A0A52
:10011800031D8F28902898280030A4000030A300E1
:100128000030A2000030A100A317A2280030A400CC
:100138000030A3000030A2000030A1002A080319F3
:10014800A628A728AC282B08031DAB28AC28B5285F
:100158000030A00000309F0000309E0000309D005D
:100168008C2D1D0883160313CC004C08B100831690
:10017800031723080A128A1191270A128A11831673
:100188000313320883160317B100831603133108CB
:1001980083160317B000300883160313CC00CD0173
:1001A800CE01CF014F0883160317A9008316031346
:1001B8004E0883160317A800831603134D088316E9
:1001C8000317A700831603134C0883160317A6000A
:1001D800310883160313CC00CD01CE01CF014F089F
:1001E80083160317AF00831603134E0883160317ED
:1001F800AE00831603134D0883160317AD0083164C
:1002080003134C0883160317AC001E088316031348
:10021800CC004C08B1008316031722080A128A1171
:1002280091270A128A1183160313320883160317BB
:10023800B10083160313310883160317B000300882
:1002480083160313CC00CD01CE01CF014C088316D1
:100258000317A607831603134D0803110318013E5D
:100268000319392983160317A707831603134E08A2
:1002780003110318013E0319442983160317A8071D
:10028800831603134F0803110318013E03194F295E
:1002980083160317A9078316031383160317310858
:1002A80083160313CC00CD01CE01CF014C08831671
:1002B8000317AC07831603134D0803110318013EF7
:1002C8000319692983160317AD07831603134E080C
:1002D80003110318013E0319742983160317AE0787
:1002E800831603134F0803110318013E03197F29CE
:1002F80083160317AF0783160313831603171F0804
:1003080083160313CC004C08B10083160317210889
:100318000A128A1191270A128A11831603133208C6
:1003280083160317B10083160313310883160317C6
:10033800B000300883160313CC00CD01CE01CF01E5
:100348004C0883160317A607831603134D080311D9
:100358000318013E0319B32983160317A707831649
:1003680003134E0803110318013E0319BE2983160F
:100378000317A807831603134F0803110318013E38
:100388000319C92983160317A907831603138316AC
:100398000317310883160313CC00CD01CE01CF011A
:1003A8004C0883160317AC07831603134D08031173
:1003B8000318013E0319E32983160317AD078316B3
:1003C80003134E0803110318013E0319EE2983167F
:1003D8000317AE07831603134F0803110318013ED2
:1003E8000319F92983160317AF0783160313831616
:1003F8000317083083160313CC0003108316031762
:10040800A60DA70DA80DA90D83160313CC0B012A61
:10041800831603171E0883160313CC004C08B1007B
:100428008316031721080A128A1191270A128A11C2
:1004380083160313320883160317B10083160313B8
:10044800310883160317B000300883160313CC0055
:1004580083160317310883160313CD00CE01CF018D
:100468004C0883160317A607831603134D080311B8
:100478000318013E0319432A83160317A707831697
:1004880003134E0803110318013E03194E2A83165D
:100498000317A807831603134F0803110318013E17
:1004A8000319592A83160317A907831603138316FA
:1004B80003171D0883160313CC004C08B1008316DC
:1004C800031722080A128A1191270A128A11831621
:1004D8000313320883160317B10083160313310878
:1004E80083160317B000300883160313CC00831655
:1004F8000317310883160313CD00CE01CF014C0832
:1005080083160317A607831603134D080311031850
:10051800013E0319922A83160317A70783160313AC
:100528004E0803110318013E03199D2A8316031769
:10053800A807831603134F0803110318013E031974
:10054800A82A83160317A90783160313831603170C
:10055800083083160313CC00031083160317A60D67
:10056800A70DA80DA90D83160313CC0BB02A83166B
:1005780003171D0883160313CC004C08B10083161B
:10058800031721080A128A1191270A128A11831661
:100598000313320883160317B100831603133108B7
:1005A80083160317B000300883160313CC00831694
:1005B8000317310883160313CD00CE01CF014C0871
:1005C80083160317A607831603134D080311031890
:1005D800013E0319F22A83160317A707831603138C
:1005E8004E0803110318013E0319FD2A8316031749
:1005F800A807831603134F0803110318013E0319B4
:10060800082B83160317A9078316031383160317EA
:100618001E0883160313CC004C08B1008316031779
:1006280023080A128A1191270A128A1183160313C2
:10063800320883160317B100831603133108831693
:100648000317B000300883160313CC008316031772
:10065800310883160313CD00CE01CF014C08831651
:100668000317AC07831603134D0803110318013E43
:100678000319412B83160317AD07831603134E087E
:1006880003110318013E03194C2B83160317AE07F9
:10069800831603134F0803110318013E0319572B40
:1006A80083160317AF0783160313831603171F0850
:1006B80083160313CC004C08B100831603172208D5
:1006C8000A128A1191270A128A1183160313320813
:1006D80083160317B1008316031331088316031713
:1006E800B000300883160313CC00831603173108B3
:1006F80083160313CD00CE01CF014C0883160317D0
:10070800AC07831603134D0803110318013E0319A0
:10071800902B83160317AD07831603134E08031196
:100728000318013E03199B2B83160317AE07831684
:1007380003134F0803110318013E0319A62B831650
:100748000317AF0783160313831603171F088316AF
:100758000313CC004C08B1008316031723080A12B0
:100768008A1191270A128A118316031332088316F5
:100778000317B10083160313310883160317B0005B
:10078800300883160313CC00831603173108831629
:100798000313CD00CE01CF0108300310CC0DCD0DD1
:1007A800CE0DCF0DFF3E031DD12B4C08831603172A
:1007B800AC07831603134D0803110318013E0319F0
:1007C800E82B83160317AD07831603134E0803118E
:1007D8000318013E0319F32B83160317AE0783167C
:1007E80003134F0803110318013E0319FE2B831648
:1007F8000317AF07831603138316031726088316F8
:100808000313CC0083160317270883160313CD00A0
:1008180083160317280883160313CE0083160317BD
:10082800290883160313CF0018300310CF0CCE0C01
:10083800CD0CCC0CFF3E031D192C4C088316031756
:10084800AC07831603134D0803110318013E03195F
:10085800302C83160317AD07831603134E080311B4
:100868000318013E03193B2C83160317AE078316A2
:1008780003134F0803110318013E0319462C83166E
:100888000317AF078316031383160317083083165D
:100898000313CC00031083160317A60DA70DA80D8C
:1008A800A90D83160313CC0B4E2C831603172B08A4
:1008B8002A0783160313CC00CD01CD0D4C08823EC8
:1008C80083160317B000831603134D080318013E5F
:1008D800FF3E83160317B1009E2C013083160313C5
:1008E800CC00031083160317AC0DAD0DAE0DAF0D84
:1008F80083160313CC0B752C83160317A91F852C9D
:10090800862C872C2C14013083160313CC0003107B
:1009180083160317A60DA70DA80DA90D831603139B
:10092800CC0B8B2CFF3083160317B0070318B10AC2
:10093800FF30B107AE1FA12CA22C712CAA01A91F50
:10094800A62CA72CD52CFF30260583160313CC0024
:10095800FF3083160317270583160313CD00FF30D6
:1009680083160317280583160313CE007F308316DA
:100978000317290583160313CF004F084E044D04AF
:100988004C040319C82CC92CCE2C83160317AA01B2
:10099800AA0AD52C831603172C1CD32CD42CD52C9F
:1009A800C92C2A080319D92CDA2C272D0130AC07B9
:1009B800003003180130AD07003003180130AE07CE
:1009C800003003180130AF072F1CEB2CEC2C272D1F
:1009D8002C0883160313CC00831603172D088316DF
:1009E8000313CD00831603172E0883160313CE00B6
:1009F800831603172F0883160313CF000130D00086
:100A08004F0DCF0CCE0CCD0CCC0CD00B042D4F08B9
:100A180083160317AF00831603134E0883160317B4
:100A2800AE00831603134D0883160317AD00831613
:100A380003134C0883160317AC000130B0070318E2
:100A4800B10A0030B1073108803AFF0080307F02D8
:100A5800031D302DFF303002031C332D342D3F2D64
:100A68007F3083160317AF008030AE000030AD0032
:100A78000030AC007C2D831603173108803AFF0044
:100A880080307F02031D4A2D0130300203184D2D9E
:100A98004E2D5A2D003083160317AF000030AE00DC
:100AA8000030AD000030AC00A5017C2D8316031783
:100AB800300883160313CC004C0883160317AB00C9
:100AC800FF30AC05FF30AD057F30AE050030AF0517
:100AD8002B1C6F2D702D712DAE172B088316031349
:100AE800CC0003104C0CCD004D0883160317AF0043
:100AF800250883160313CC004C0883160317AF048C
:100B08002F08A0002E089F002D089E002C089D008D
:100B18000800831203130C1F922D932D7E2E83162B
:100B280003135E03031D992D9A2D7B2E8312031345
:100B38001F0C83160313AB002B0C0F39003A031D4F
:100B4800A62DA72D012E831203131E088316031347
:100B5800AB002B08DA00A501FF30AB002B08A6007C
:100B68001F30A7000030A8009E30A9000030AA005E
:100B78005A080A168A1550230A128A118316031373
:100B88002608D7002508D6005708AC005608AB0041
:100B98000310AC0CAB0C0310AC0CAB0C2B08831281
:100BA80003139B008316031356080139AB00AB0EE1
:100BB800831203131D08831603132B06EF392B0624
:100BC800831203139D00831603135708AC005608BD
:100BD800AB000310AC0CAB0C2B080139AD00AD0E0B
:100BE800AD0D831203131D08831603132D06DF3979
:100BF8002D06831203139D007B2E831203131F0CF3
:100C080083160313AB002B0C0F39013A031D0D2E6D
:100C18000E2E4F2E831203131E0883160313AB00E8
:100C28002B08DB00A501FF30AB002B08A6001F3006
:100C3800A7000030A8009E30A9000030AA005B0879
:100C48000A168A1550230A128A11831603132608D6
:100C5800D9002508D8005908AC005808AB00031083
:100C6800AC0CAB0C0310AC0CAB0C2B0883120313AD
:100C780095008316031358080339AB00AB0E831293
:100C880003131708831603132B06CF392B06831279
:100C9800031397007B2E831203131F0C8316031371
:100CA800AB002B0C0F39023A031D5B2E5C2E652E10
:100CB800831203131E0883160313AB002B08DC00F2
:100CC8007B2E831203131F0C83160313AB002B0C0C
:100CD8000F39033A031D712E722E7B2E83120313D4
:100CE8001E0883160313AB002B08DD007B2E83122E
:100CF8000C13862F8C1E812E822E8B2E1A0883169B
:100D08000313AB002B0883160317D800862F0B1C80
:100D18008E2E8F2E862F0618922E932EA82E0130F7
:100D280083160313AB002B08DE0704305E02031C96
:100D38009E2E9F2EA22EDE01DE0AA82E5E08031D1F
:100D4800A62EA72EA82E9F2E831603135E03031D1F
:100D5800AE2EAF2E1B2F831203138618B42EB52E7A
:100D6800E62E831603135A08AB002B08F000013057
:100D78000A168A1136200A128A11831603135B0891
:100D8800AB002B08F00002300A168A1136200A122E
:100D98008A11831603135C08AB002B08F00003309C
:100DA8000A168A1136200A128A11831603135D085F
:100DB800AB002B08F00004300A168A1136200A12FC
:100DC8008A11842F0619E92EEA2E842F831603131D
:100DD8005A08AB002B08F00005300A168A11362095
:100DE8000A128A11831603135B08AB002B08F00064
:100DF80006300A168A1136200A128A11831603133E
:100E08005C08AB002B08F00007300A168A11362060
:100E18000A128A11831603135D08AB002B08F00031
:100E280008300A168A1136200A128A11842F0230D5
:100E38005E06031D202F212F842F8312031386188B
:100E4800262F272F542F01300A128A11E1270A1260
:100E58008A1183160313AB002B08DA0002300A123A
:100E68008A11E1270A128A1183160313AB002B0893
:100E7800DB0003300A128A11E1270A128A1183164D
:100E88000313AB002B08DC0004300A128A11E12797
:100E98000A128A1183160313AB002B08DD00842F76
:100EA8000619572F582F842F05300A128A11E12767
:100EB8000A128A1183160313AB002B08DA000630D6
:100EC8000A128A11E1270A128A1183160313AB004A
:100ED8002B08DB0007300A128A11E1270A128A114F
:100EE80083160313AB002B08DC0008300A128A11A2
:100EF800E1270A128A1183160313AB002B08DD00C1
:100F08000B10862F831603133008FF002F088A0062
:100F18002E0E8300FE0E7E0E090083160313B90001
:100F2800B501B6013108B300B4013308B70034087D
:100F3800B800391CA02FA12FA72F3708B507031811
:100F4800B60A3808B60701300310B70DB80DFF3ED2
:100F5800031DA82F0310B90C3908031DB42FB52F92
:100F68009D2F3608B2003508B1000800F800F401DA
:100F7800F5017008F200F3017208F6007308F70033
:100F8800781CC72FC82FCE2F7608F4070318F50A48
:100F98007708F50701300310F60DF70DFF3E031D26
:100FA800CF2F0310F80C7808031DDB2FDC2FC42F7C
:100FB8007508F1007408F0000800F000700883124A
:100FC80003178D00831603178C130C148312031751
:080FD8000C080800013401348B
:10100A00031083160317440D450DC6004608CC008D
:10101A004C08031D112812281B280030C500003077
:10102A00C4000030C3000030C20080284208C60055
:10103A004308C7004408C8004508C9001F30031008
:10104A00C90CC80CC70CC60CFF3E031D2428460851
:10105A00CA004A08CB00C417FF30C205FF30C305D7
:10106A00FF30C4050030C5059630CC02CC1F3E289F
:10107A003F2859284C08803A973E031845284628A5
:10108A004728122801300310C50CC40CC30CC20C2B
:10109A00FF3E031D48280130C6004608CC07031D41
:1010AA00572858284728702820304C02031C5E28ED
:1010BA005F286B2812280130C6000310C20DC30D29
:1010CA00C40DC50DC60B62280130CC024C08031DA5
:1010DA006F28702860284B080319742875288028FF
:1010EA00C209C309C409C509C20A0319C30A0319F3
:1010FA00C40A0319C50A080083160313D500831608
:10110A0003174F0883160313B100831603175008F9
:10111A0083160313B200B301B40100300A168A150C
:10112A00BC240A128A15831603133408831603177C
:10113A00B90083160313330883160317B8008316FE
:10114A000313320883160317B700831603133108F3
:10115A0083160317B6004F08510283160313B10012
:10116A00831603175008031C500A520283160313EE
:10117A00B200B301B40100300A168A15BC240A125F
:10118A008A15831603133408C6003308C5003208CB
:10119A00C4003108C300831603174D084E02831694
:1011AA000313B100B201031CB203B301B21BB303B0
:1011BA003308B40001300A168A15BC240A128A15AB
:1011CA00831603133408C2003308C1003208C00072
:1011DA003108BF000A168A1133220A128A158316A9
:1011EA000313420883160317A40083160313410846
:1011FA0083160317A30083160313400883160317E5
:10120A00A200831603133F0883160317A1004D0893
:10121A00831603135502B100B201031CB203B301D2
:10122A00B21BB3033308B40001300A168A15BC2472
:10123A000A128A1583160313340883160317A000AB
:10124A00831603133308831603179F0083160313A9
:10125A003208831603179E00831603133108831678
:10126A0003179D000A128A1138200A128A1583165A
:10127A0003172008B5001F08B4001E08B3001D0894
:10128A00B2000A128A1561210A128A1583160317F7
:10129A003508C5003408C4003308C3003208C20048
:1012AA000A128A1505200A128A158316031743089B
:1012BA00CE004208CD00080083160317350880398E
:1012CA00BA003A0883160313D100831603173508A8
:1012DA00BA003A07BB003B0883160313D3008316F0
:1012EA000317B41F79297A297D2983160313531406
:1012FA00031353080319822983299729530A031DC3
:10130A00872988299229003083160317B5000030EF
:10131A00B4000030B3000030B20083160317B417CC
:10132A00B501A129003083160317B5000030B400B7
:10133A000030B3000030B20039088039BA003A08E8
:10134A0083160313D200520851060319AD29AE2998
:10135A00AF295117831603173908BA003A07BB0099
:10136A003B0883160313D20083160317B81FBE293E
:10137A00BF29C229831603135214031352080319EF
:10138A00C729C829DC29520A031DCC29CD29D72906
:10139A00003083160317B9000030B8000030B700D8
:1013AA000030B60083160317B817B901E6290030D2
:1013BA0083160317B9000030B8000030B7000030B8
:1013CA00B60083160313530852020318ED29EE29B7
:1013DA00642A511FF129F229FA298030831603174A
:1013EA00BA003A0883160313D10653088316031763
:1013FA00BA003A0883160313D40052088316031757
:10140A00BA003A0883160313D30054088316031745
:10141A00BA003A0883160313D20083160317320858
:10142A00BA003A0883160313D40083160317360842
:10143A00BA003A08B2008316031354088316031736
:10144A00BA003A08B6003308BA003A0883160313FA
:10145A00D400831603173708BA003A08B300831674
:10146A000313540883160317BA003A08B70034085E
:10147A00BA003A0883160313D400831603173808F0
:10148A00BA003A08B40083160313540883160317E4
:10149A00BA003A08B8003508BA003A0883160313A6
:1014AA00D400831603173908BA003A08B500831620
:1014BA000313540883160317BA003A08B900031332
:1014CA00D401520883160317BA00BB013B08BD00BA
:1014DA00831603135308831603173A02BC00031C2E
:1014EA00BD033D08803AFF0080307F02031D7F2A3A
:1014FA001A303C02031C822A832AD62A831603172F
:10150A003508340433043204031D8C2A8E2A013030
:10151A008F2A0030BA003A0883160313D400003029
:10152A0083160317B5000030B4000030B300003052
:10153A00B20083160313520883160317BA003A0837
:10154A0083160313D300DE2A541CAC2AAD2ABA2A06
:10155A00540883160317BA0003103A0C0138BB006B
:10156A003B0883160313D400BC2A0310D40C831639
:10157A000317321CC12AC22AC52A83160313D41799
:10158A00013083160317BA00350DB50CB40CB30C31
:10159A00B20CBA0BC92A0130BA003A0883160313EF
:1015AA00D3078316031352085302031CDD2ADE2ACB
:1015BA00A92A511BE12AE22A3F2B5308031DE62AD6
:1015CA00E72AF22A003083160317B5000030B40068
:1015DA000030B3000030B2009E2C83160317360881
:1015EA00B207370803110318013E0319FD2AB3078E
:1015FA00380803110318013E0319042BB4073908EC
:10160A0003110318013E03190B2BB507351C0E2BCA
:10161A000F2B062C83160313541C142B152B222B69
:10162A00540883160317BA0003103A0C0138BB009A
:10163A003B0883160313D400242B0310D40C8316FF
:10164A000317321C292B2A2B2D2B83160313D4178D
:10165A00013083160317BA00350DB50CB40CB30C60
:10166A00B20CBA0B312B0130BA003A0883160313B5
:10167A00D307062C831603173508803AFF0039086A
:10168A00803A7F02031D532B38083402031D532B63
:10169A0037083302031D532B360832020318562B20
:1016AA00572BB32BFF30BA00FF30BB00FF30BC0012
:1016BA00FF30BD003608BE003708BF003808C0003A
:1016CA003908C1003208BE023308031C330F6E2BDF
:1016DA006F2BBF023408031C340F742B752BC00206
:1016EA003508031C350F7A2B7B2BC1023E08BA073B
:1016FA003F0803183F0F822B832BBB0740080318B0
:10170A00400F882B892BBC0741080318410ABD07E3
:10171A003D08B5003C08B4003B08B3003A08B200E3
:10172A008030BA003A0883160313D106D409D40AC2
:10173A005408031DA12BA22BC12B013083160317BA
:10174A00B207003003180130B30700300318013024
:10175A00B407003003180130B507C12B3608B202AE
:10176A003708031C370FB3023808031C380FB402BA
:10177A003908031C390FB5028316031735083404D8
:10178A0033043204031DCA2BCB2B002C83160313FC
:10179A005408031DD12BD22B002C003083160317BB
:1017AA00B5000030B4000030B3000030B2009E2C07
:1017BA000130BA000310B20DB30DB40DB50DBA0B5A
:1017CA00DF2B83160313D41FEB2BEC2BEF2B831683
:1017DA00031732140313541CF32BF42BF72B0314A3
:1017EA00D40DF92B0310D40D53080319FD2BFE2B2E
:1017FA00002C0130D30283160317B41F052C062CC4
:10180A00DD2B0313D201D41F0B2C0C2C1D2C5408D6
:10181A007F390319112C122C162C0313D201D20A68
:10182A001D2C83160317321C1B2C1C2C1D2C122C4E
:10183A00031352080319222C232C5F2C0130831620
:10184A000317B207003003180130B307003003183A
:10185A000130B407003003180130B507351C362CA7
:10186A00372C5F2C3208BA003308BB003408BC009E
:10187A003508BD000130BE003D0DBD0CBC0CBB0CD3
:10188A00BA0CBE0B412C3D08B5003C08B4003B081D
:10189A00B3003A08B20083160313530A0319562CED
:1018AA00572C5F2C013083160317BA003A088316A7
:1018BA000313D3070313530A0319642C652C6A2CE8
:1018CA005308031D692C6A2C7C2C003083160317DD
:1018DA00B5000030B4000030B3000030B200831607
:1018EA0003135308031D7A2C7B2C7C2CD101531C27
:1018FA007F2C802C842C83160317B4178A2C7F30F4
:10190A0083160317BA003A08B4058316031353085B
:10191A0083160317BA0003103A0CBB003B08B50044
:10192A0083160313D11F9A2C9B2C9E2C8316031704
:10193A00B5170800831203133D088039C200420814
:10194A00C7003D08C2004207C3004308CD00BC1FC0
:10195A00AF2CB02CB12C4D144D080319B52CB62C54
:10196A00C52C4D0A031DBA2CBB2CC32C0030BD005C
:10197A000030BC000030BB000030BA00BC17CD2CD0
:10198A000030BD000030BC000030BB000030BA009F
:10199A0041088039C2004208C7064108C20042070E
:1019AA00C3004308CC00C01FDB2CDC2CDD2C4C14FC
:1019BA004C080319E12CE22CF12C4C0A031DE62CED
:1019CA00E72CEF2C0030C1000030C0000030BF000F
:1019DA000030BE00C017F92C0030C1000030C00032
:1019EA000030BF000030BE004C080319FD2CFE2C4D
:1019FA00032D4D08031D022D032D0C2D0030BD00B3
:101A0A000030BC000030BB000030BA00FF2F3A089B
:101A1A00C2004208F00040080A128A11BA270A12C4
:101A2A008A15710883120313D3007008D200520872
:101A3A00C200C301C401C5014508CB004408CA005D
:101A4A004308C9004208C8005308C200C301C401C0
:101A5A00C5014508D1004408D0004308CF00420818
:101A6A00CE003B08C2004208F0003F080A128A1161
:101A7A00BA270A128A15710883120313D300700851
:101A8A00D2005208C200C301C401C5014208C807F6
:101A9A00430803110318013E0319542DC9074408CA
:101AAA0003110318013E03195B2DCA0745080311E8
:101ABA000318013E0319622DCB075308C200C30164
:101ACA00C401C5014208CE07430803110318013EA9
:101ADA000319702DCF07440803110318013E031997
:101AEA00772DD007450803110318013E03197E2DEF
:101AFA00D1073C08C2004208F0003E080A128A11C7
:101B0A00BA270A128A15710883120313D3007008C0
:101B1A00D2005208C200C301C401C5014208C80765
:101B2A00430803110318013E03199C2DC9074408F1
:101B3A0003110318013E0319A32DCA07450803110F
:101B4A000318013E0319AA2DCB075308C200C3018B
:101B5A00C401C5014208CE07430803110318013E18
:101B6A000319B82DCF07440803110318013E0319BE
:101B7A00BF2DD007450803110318013E0319C62DCE
:101B8A00D1070830C2000310C80DC90DCA0DCB0D0C
:101B9A00C20BC82D3B08C2004208F0003E080A12D8
:101BAA008A11BA270A128A15710883120313D300FD
:101BBA007008D2005208C2005308C300C401C5010C
:101BCA004208C807430803110318013E0319EE2D02
:101BDA00C907440803110318013E0319F52DCA0762
:101BEA00450803110318013E0319FC2DCB073A08D7
:101BFA00C2004208F0003F080A128A11BA270A12E4
:101C0A008A15710883120313D3007008D200520890
:101C1A00C2005308C300C401C5014208C8074308EB
:101C2A0003110318013E03191B2EC90744080311A7
:101C3A000318013E0319222ECA0745080311031887
:101C4A00013E0319292ECB070830C2000310C80D24
:101C5A00C90DCA0DCB0DC20B2B2E3A08C200420881
:101C6A00F0003E080A128A11BA270A128A15710868
:101C7A0083120313D3007008D2005208C20053081B
:101C8A00C300C401C5014208C80743080311031869
:101C9A00013E0319512EC907440803110318013ED6
:101CAA000319582ECA07450803110318013E0319E0
:101CBA005F2ECB073B08C2004208F00040080A1218
:101CCA008A11BA270A128A15710883120313D300DC
:101CDA007008D2005208C2005308C300C401C501EB
:101CEA004208CE07430803110318013E03197E2E4A
:101CFA00CF07440803110318013E0319852ED007A4
:101D0A00450803110318013E03198C2ED1073C081C
:101D1A00C2004208F0003F080A128A11BA270A12C2
:101D2A008A15710883120313D3007008D20052086F
:101D3A00C2005308C300C401C5014208CE074308C4
:101D4A0003110318013E0319AB2ECF0744080311F0
:101D5A000318013E0319B22ED007450803110318D0
:101D6A00013E0319B92ED1073C08C2004208F0000F
:101D7A0040080A128A11BA270A128A1571088312B0
:101D8A000313D3007008D2005208C2005308C300DC
:101D9A00C401C50108300310C20DC30DC40DC50D21
:101DAA00FF3E031DD02E4208CE0743080311031835
:101DBA00013E0319E12ECF07440803110318013E1F
:101DCA000319E82ED007450803110318013E031929
:101DDA00EF2ED1074808C2004908C3004A08C400C8
:101DEA004B08C50018300310C50CC40CC30CC20C38
:101DFA00FF3E031DF82E4208CE07430803110318BD
:101E0A00013E0319092FCF07440803110318013EA5
:101E1A000319102FD007450803110318013E0319AF
:101E2A00172FD1070830C2000310C80DC90DCA0DFB
:101E3A00CB0DC20B192F4D084C07C200C301C30DAD
:101E4A004208823ED20043080318013EFF3ED300F7
:101E5A004B2F0130C2000310CE0DCF0DD00DD10D86
:101E6A00C20B302FCB1F3A2F3B2F3C2F4E14013081
:101E7A00C2000310C80DC90DCA0DCB0DC20B3E2FEF
:101E8A00FF30D2070318D30AFF30D307D01F4E2FD3
:101E9A004F2F2E2FCC01CB1F532F542F702FFF30D3
:101EAA004805C200FF304905C300FF304A05C40097
:101EBA007F304B05C5004508440443044204031916
:101ECA00672F682F6B2FCC01CC0A702F4E1C6E2FF8
:101EDA006F2F702F682F4C080319742F752FA62F98
:101EEA000130CE07003003180130CF070030031845
:101EFA000130D007003003180130D107511C862F5A
:101F0A00872FA62F4E08C2004F08C3005008C400EE
:101F1A005108C5000130C600450DC50CC40CC30CE0
:101F2A00C20CC60B912F4508D1004408D0004308C3
:101F3A00CF004208CE000130D2070318D30A00307E
:101F4A00D3075308803AFF0080307F02031DAF2F6A
:101F5A00FF305202031CB22FB32FBE2F7F308312E1
:101F6A000313D1008030D0000030CF000030CE0003
:101F7A00F32F831203135308803AFF0080307F0245
:101F8A00031DC92F013052020318CC2FCD2FD92F90
:101F9A00003083120313D1000030D0000030CF008C
:101FAA000030CE00C701F32F831203135208C20078
:101FBA004208CD00FF30CE05FF30CF057F30D00577
:101FCA000030D1054D1CEA2FEB2FEC2FD0174D080E
:101FDA00C2000310420CC3004308D1004708C200E4
:101FEA004208D1045108BD005008BC004F08BB008C
:061FFA004E08BA000800C9
:10206C00F3007308831203178D0070088C0083161D
:10207C0003178C130C158B1355308D00AA308D0063
:10208C008C142130F2007630F100F10B4B28F20B5E
:10209C004B280000831603170C110B108B1708002C
:1020AC008312031327088039A8002808B1002708D9
:1020BC00A8002807A9002908B800A61F66286728C9
:1020CC0068283814380803196C286D287D28380ABC
:1020DC00031D712872287A280030A7000030A60052
:1020EC000030A5000030A400A617A70185280030F9
:1020FC00A7000030A6000030A5000030A400230883
:10210C008039A8002808B1062308A8002807A900D0
:10211C002908B900A21F9328942895283914390846
:10212C00031999289A28AA28390A031D9E289F2842
:10213C00A7280030A3000030A2000030A10000301E
:10214C00A000A217A301B2280030A3000030A20007
:10215C000030A1000030A000230822042104200438
:10216C00031DB928BA28D3280030A7000030A600D8
:10217C000030A5000030A4008030A6047F30A704F6
:10218C003108A8002808A7042708A3002608A200E5
:10219C002508A1002408A000322A3808031DD728DE
:1021AC00D828E1280030A3000030A2000030A100A4
:1021BC000030A000322A3808A800A9012908AB0079
:1021CC0039082802AA00031CAB032A087F3EB20080
:1021DC002B080318013E003EB3002708B000260868
:1021EC00AF002508AE002408AD000030A700003079
:1021FC00A6000030A5000030A4000030B70000306D
:10220C00B6000030B5000030B400B90157293908C8
:10221C0003191129122932290130A8000310AD0D20
:10222C00AE0DAF0DB00DA80B14290130A800031092
:10223C00A40DA50DA60DA70DA80B1D29B71F2729A9
:10224C002829292924140130A8000310B40DB50D38
:10225C00B60DB70DA80B2B2923083002031D4029FE
:10226C0022082F02031D402921082E02031D40299C
:10227C0020082D02031C4329442953293717200811
:10228C00AD022108031C210FAE022208031C220FF1
:10229C00AF022308031C230FB0020130A80028084A
:1022AC00B9071A303902031C5C295D290D29300845
:1022BC002F042E042D040319642965298429341450
:1022CC0084290130A8000310A40DA50DA60DA70D9F
:1022DC00A80B6929B71F7329742975292414013097
:1022EC00A8000310B40DB50DB60DB70DA80B7729CA
:1022FC00FF30B2070318B30AFF30B307A61F8729B4
:10230C0088296729B901B71F8C298D29A929FF3084
:10231C003405A800FF303505A900FF303605AA00AA
:10232C007F303705AB002B082A0429042804031935
:10233C00A029A129A429B901B90AA929241CA729D2
:10234C00A829A929A12939080319AD29AE29DF2902
:10235C000130A407003003180130A5070030031822
:10236C000130A607003003180130A707271CBF292E
:10237C00C029DF292408A8002508A9002608AA00DE
:10238C002708AB000130AC002B0DAB0CAA0CA90C30
:10239C00A80CAC0BCA292B08A7002A08A6002908F0
:1023AC00A5002808A4000130B2070318B30A0030B6
:1023BC00B3073308803AFF0080307F02031DE82901
:1023CC00FF303202031CEB29EC29FA29FF3083126F
:1023DC000313B2000030B3000030A7000030A60099
:1023EC000030A5000030A400831203133308803A98
:1023FC00FF0080307F02031D052A013032020318D2
:10240C00082A092A162A83120313B201B3010030D9
:10241C00A7000030A6000030A5000030A400B101D8
:10242C00831203133208A8002808B800381C1F2A8E
:10243C00202A222AA617262A7F30A8002808A605BB
:10244C003808A8000310280CA9002908A700310897
:10245C00A8002808A704CA280800831603134608F6
:10246C008039C7004708831603179400831603139B
:10247C004608C7004707C8004808831603179B0087
:10248C0083160313C51F4B2A4C2A4F2A8316031796
:10249C001B14831603171B080319552A562A692A7D
:1024AC001B0A031D5A2A5B2A652A00308316031364
:1024BC00C6000030C5000030C4000030C300031358
:1024CC00C517C601732A003083160313C6000030EB
:1024DC00C5000030C4000030C30042088039C7007A
:1024EC004708831603179406831603134208C70084
:1024FC004707C8004808831603179C00831603136C
:10250C00C11F892A8A2A8D2A831603171C14831645
:10251C0003171C080319932A942AA72A1C0A031DC3
:10252C00982A992AA32A003083160313C20000307C
:10253C00C1000030C0000030BF000313C117C2013E
:10254C00B12A003083160313C2000030C1000030E2
:10255C00C0000030BF004208410440043F04031D8A
:10256C00B82AB92AD62A0030C6000030C50000307F
:10257C00C4000030C3008030C5047F30C60483160D
:10258C000317140883160313C7004708C60446082C
:10259C00C2004508C1004408C0004308BF00D22C4B
:1025AC00831603171B08031DDC2ADD2AE82A0030DA
:1025BC0083160313C2000030C1000030C00000308D
:1025CC00BF00D22C1B0883160313C700C801480890
:1025DC00CA00831603171C08831603134702C9008D
:1025EC00031CCA0349087F3E831603179500831604
:1025FC0003134A080318013E003E83160317960086
:10260C0083160313460883160317930083160313CC
:10261C004508831603179200831603134408831688
:10262C0003179100831603134308831603179000B6
:10263C00003083160313C6000030C5000030C40000
:10264C000030C3000030831603179A000030990045
:10265C0000309800003097009C01BA2B1C0803191D
:10266C00382B392B682B013083160313C70003104A
:10267C0083160317900D910D920D930D8316031372
:10268C00C70B3D2B0130C7000310C30DC40DC50D86
:10269C00C60DC70B4A2B831603179A1F562B572BA5
:1026AC005A2B83160313431401300313C700031072
:1026BC0083160317970D980D990D9A0D8316031316
:1026CC00C70B5D2B03134208831603171302031D5C
:1026DC00852B831603134108831603171202031D5F
:1026EC00852B831603134008831603171102031D51
:1026FC00852B831603133F08831603171002031C44
:10270C00882B892BB22B1A17831603133F088316B9
:10271C0003179002831603134008031C400F972BDA
:10272C009A2B831603179102831603134108031C7B
:10273C00410FA12BA42B83160317920283160313AC
:10274C004208031C420FAB2BAE2B831603179302CC
:10275C008316031383160317013083160313C70064
:10276C004708831603179C071A301C02031CBF2B47
:10277C00C02B342B13081204110410040319C72B9B
:10278C00C82BF22B1714F22B0130C7000310C30D0A
:10279C00C40DC50DC60DC70BCC2B831603179A1F82
:1027AC00D82BD92BDC2B83160313431401300313C2
:1027BC00C700031083160317970D980D990D9A0DEA
:1027CC0083160313C70BDF2BFF30831603179507F4
:1027DC000318960AFF30960783160313C51FF72BB1
:1027EC00F82BCA2B831603179C019A1FFE2BFF2B69
:1027FC002B2CFF30170583160313C700FF308316ED
:10280C000317180583160313C800FF30831603172C
:10281C00190583160313C9007F30831603171A0595
:10282C0083160313CA004A084904480447040319D1
:10283C00202C212C262C831603179C019C0A2B2C54
:10284C00431C292C2A2C2B2C212C831603171C08F7
:10285C000319312C322C672C013083160313C30758
:10286C00003003180130C407003003180130C507CD
:10287C00003003180130C607461C452C462C672C2B
:10288C004308C7004408C8004508C9004608CA00E8
:10289C000130CB004A0DCA0CC90CC80CC70CCB0BB1
:1028AC00502C4A08C6004908C5004808C40047080F
:1028BC00C30001308316031795070318960A0030DE
:1028CC009607831603171608803AFF0080307F02A4
:1028DC00031D722CFF301502031C752C762C862CD4
:1028EC00FF308316031795000030960000308316D6
:1028FC000313C6000030C5000030C4000030C30014
:10290C00831603171608803AFF0080307F02031DE0
:10291C00912C013015020318942C952CA62C83169F
:10292C00031795019601003083160313C60000307F
:10293C00C5000030C4000030C30083160317940197
:10294C0083160317150883160313C700470883164D
:10295C0003179B001B1CB32CB42CB82C831603132D
:10296C00C517BE2C7F3083160313C7004708C50557
:10297C00831603171B0883160313C7000310470C99
:10298C00C8004808C60083160317140883160313DF
:10299C00C7004708C604CD2A08000A168A151B2250
:1029AC000A168A11043083160317D4003D30D30065
:1029BC00D30BDE2CD40BDE2C8312031385170430BF
:1029CC0083160317D4003D30D300D30BEB2CD40B60
:1029DC00EB2C831203138513831603175703031D64
:1029EC00F82CF92C0A2D831603135C08013883127A
:1029FC000313930083160313141C052D062D002DB1
:102A0C0083160317D701202D5708031D0E2D0F2DEC
:102A1C00202D831603135D08FE39831203139300D4
:102A2C0083160313141C1B2D1C2D162D8316031734
:102A3C00D701D70A831203138517043083160317A3
:102A4C00D4003D30D300D30B292DD40B292D831268
:102A5C0003138513831603135E03031D362D372DC5
:102A6C00482E83160317CD01FF30D3005308CE0038
:102A7C001F30CF000030D0009E30D1000030D2008B
:102A8C00831603135A080A128A1581200A168A1112
:102A9C00831603174E0883160313D70083160317E8
:102AAC004D0883160313D600570883160317D4005A
:102ABC0083160313560883160317D3000310D40C84
:102ACC00D30C0310D40CD30C5308831203139B00A8
:102ADC00831603135608013983160317D300D30E3C
:102AEC00831203131D08831603175306EF3953067D
:102AFC00831203139D0083160313570883160317C1
:102B0C00D40083160313560883160317D30003103F
:102B1C00D40CD30C53080139D500D50ED50D831226
:102B2C0003131D08831603175506DF395506831248
:102B3C0003139D0083160317CD01FF30D3005308F8
:102B4C00CE001F30CF000030D0009E30D1000030BE
:102B5C00D200831603135B080A128A1581200A1609
:102B6C008A11831603174E0883160313D900831694
:102B7C0003174D0883160313D8005908831603173F
:102B8C00D40083160313580883160317D3000310BD
:102B9C00D40CD30C0310D40CD30C53088312031392
:102BAC009500831603135808033983160317D300B3
:102BBC00D30E831203131708831603175306CF394A
:102BCC0053068312031397009F18ED2DEE2D442E00
:102BDC001F0C83160317D300530C0F39003A031D37
:102BEC00F82DF92D002E831203131F08C339043856
:102BFC009F003A2E831203131F0C83160317D30066
:102C0C00530C0F39013A031D0C2E0D2E142E83126A
:102C1C0003131F08C33908389F003A2E831203137D
:102C2C001F0C83160317D300530C0F39023A031DE4
:102C3C00202E212E282E831203131F08C3390C3883
:102C4C009F003A2E831203131F0C83160317D30015
:102C5C00530C0F39033A031D342E352E3A2EC33044
:102C6C00831203139F053A2E023083160317D300E9
:102C7C00D30B3E2E0000831203139F1488170813E6
:102C8C008812D82C02305E06031D4D2E4E2E052FB9
:102C9C0083160317CD01FF30D3005308CE001F302D
:102CAC00CF000030D0009E30D1000030D20083160F
:102CBC0003135A080A128A1581200A168A118316E0
:102CCC0003174E0883160313D700831603174D08FA
:102CDC0083160313D600570883160317D4008316E4
:102CEC000313560883160317D3000310D40CD30C0C
:102CFC000310D40CD30C5308831203139B008316BC
:102D0C0003135608013983160317D300D30E83120D
:102D1C0003131D08831603175306EF39530683124A
:102D2C0003139D0083160313570883160317D4004F
:102D3C0083160313560883160317D3000310D40C01
:102D4C00D30C53080139D500D50ED50D83120313BE
:102D5C001D08831603175506DF3955068312031316
:102D6C009D0083160317CD01FF30D3005308CE000E
:102D7C001F30CF000030D0009E30D1000030D20088
:102D8C00831603135B080A128A1581200A168A110E
:102D9C00831603174E0883160313D90083160317E3
:102DAC004D0883160313D800590883160317D40053
:102DBC0083160313580883160317D3000310D40C7F
:102DCC00D30C0310D40CD30C5308831203139500AB
:102DDC00831603135808033983160317D300D30E35
:102DEC00831203131708831603175306CF395306A0
:102DFC00831203139700081788138812D82C0330FA
:102E0C005E06031D0A2F0B2FD82C83120313881672
:102E1C00081388138316031758080339D300530873
:102E2C00D6005608031D1B2F1C2F8C2F5808D300BF
:102E3C00530883160313DA0083160317CD01FF30F2
:102E4C00D3005308CE001F30CF000030D0009E308E
:102E5C00D1000030D200831603135A080A128A15C7
:102E6C0081200A168A11831603174E088316031342
:102E7C00D700831603174D0883160313D600570883
:102E8C0083160317D40083160313560883160317EF
:102E9C00D3000310D40CD30C0310D40CD30C530854
:102EAC00831203139B0083160313560801398316F0
:102EBC000317D300D30E831203131D0883160317B5
:102ECC005306EF395306831203139D008316031325
:102EDC00570883160317D40083160313560883165A
:102EEC000317D3000310D40CD30C53080139D500AD
:102EFC00D50ED50D831203131D0883160317550623
:102F0C00DF395506831203139D00D82C5603031D7D
:102F1C00902F912FE22F5808D300530883160313D8
:102F2C00DB0083160317CD01FF30D3005308CE000E
:102F3C001F30CF000030D0009E30D1000030D200C6
:102F4C00831603135B080A128A1581200A168A114C
:102F5C00831603174E0883160313D9008316031721
:102F6C004D0883160313D800590883160317D40091
:102F7C0083160313580883160317D3000310D40CBD
:102F8C00D30C0310D40CD30C5308831203139500E9
:102F9C00831603135808033983160317D300D30E73
:102FAC00831203131708831603175306CF395306DE
:102FBC00831203139700D82C02305606031DE72FFB
:102FCC00E82FEF2F5808D300530883160313DC00A7
:102FDC00D82C03305606031DF42FF52FFC2F580860
:102FEC00D300530883160313DD00D82CD82C0A12F7
:042FFC008A111028FE
:103436000F3083160317880089010F308316031394
:1034460085008312031385011F308316031386003C
:103456008801831203138801831603130F088F391B
:1034660040388F000F143F30831203139F058316D5
:1034760003131F129F12C330831203139F05831673
:1034860003139F13831203131F14023083160313AF
:10349600B100B10B4C2A0000831603130715273021
:1034A60092001812181583160317871519308316FC
:1034B600031399009A0183120313981783160313B3
:1034C6001813981683120313181697013F309705A1
:1034D6001708F0390C3897000730950030309704FC
:1034E600831603138714831203139D011D08F039F5
:1034F6000C389D0007309B001D169D168C1003305E
:10350600920412158C1C882A892A852A8C10831607
:10351600031307118710871183120313870183167C
:10352600031381131F3095008B151F3096000B1067
:10353600071687118712831203138701F03094054B
:103546001412941683160313141794178312031375
:1035560093010C13831603130C170B178B178C167A
:1035660008000310831203136A0D6B0D83160313F1
:10357600A000200883120313ED006D08031DC42A62
:10358600C52ACE2A0030EB000030EA000030E90000
:103596000030E8004F2B680883160313A00083123F
:1035A6000313690883160313A100831203136A0821
:1035B60083160313A200831203136B0883160313E7
:1035C600A3001F300310A30CA20CA10CA00CFF3EFD
:1035D600031DE52A2008A400240883120313EC0027
:1035E600EA17FF30E805FF30E905FF30EA0500304D
:1035F600EB059630ED02ED1F012B022B202B6D08FB
:10360600803A973E0318082B092B0A2BC52A01304E
:103616000310EB0CEA0CE90CE80CFF3E031D0B2B28
:10362600013083160313A000200883120313ED074D
:10363600031D1E2B1F2B0A2B3F2B20306D02031C54
:10364600252B262B3A2BC52A013083160313A000FF
:10365600031083120313E80DE90DEA0DEB0D831633
:103666000313A00B2B2B013083120313ED026D08FD
:10367600031D3E2B3F2B272B6C080319432B442B92
:103686004F2BE809E909EA09EB09E80A0319E90AEF
:103696000319EA0A0319EB0A080083120313EE0062
:1036A600831603132708F0002808F100F201F3013E
:1036B60000300A168A1502240A168A157308831220
:1036C6000313DB007208DA007108D9007008D8000D
:1036D6008316031327082902F0002808031C280A6A
:1036E6002A02F100F201F30100300A168A150224BB
:1036F6000A168A15730883120313A7007208A60018
:103706007108A5007008A400831603132508260275
:10371600F000F101031CF103F201F11BF203720840
:10372600F30001300A168A1502240A168A15730850
:1037360083120313A3007208A2007108A100700887
:10374600A0000A168A1156200A168A158312031338
:103756002308C1002208C0002108BF002008BE00BF
:10376600831603132508831203136E02F000F1017A
:10377600031CF103F201F11BF2037208F30001309E
:103786000A168A1502240A168A1573088312031369
:10379600BD007208BC007108BB007008BA000A12AE
:1037A6008A159F240A168A15831203133D08D7002B
:1037B6003C08D6003B08D5003A08D4000A168A15FC
:1037C60078250A168A15831203135708EB00560844
:1037D600EA005508E9005408E8000A168A15B422DA
:1037E6000A168A1583120313690883160313A600A3
:1037F60083120313680883160313A5000800F80054
:1038060078080319072C082C1C2CF31F0B2C0C2CE6
:103816001C2C7009FA007109FB007209FC0073097F
:10382600FD00FA0A0319FB0A0319FC0A0319FD0A2B
:10383600242C7308FD007208FC007108FB00700858
:10384600FA007308720471047004031D2B2C2C2CCF
:10385600352C0030F3000030F2000030F10000306B
:10386600F000BB2C9630F4007408F900472C0130A8
:10387600F4007408F90701300310FD0CFC0CFB0C76
:10388600FA0CFF3E031D3F2CFE307D05031D4C2C1C
:103896004D2C3A2C692C0130F4007408F9070130DC
:1038A600FA07003003180130FB0700300318013017
:1038B600FC07003003180130FD0701300310FD0C32
:1038C600FC0CFB0CFA0CFF3E031D612CFF307D0542
:1038D600031D6E2C6F2C4E2C7B2C0130F90201300F
:1038E600F4000310FA0DFB0DFC0DFD0DF40B742C0A
:1038F600FC1B7E2C7F2C852C023079020318842C2D
:10390600852C702C7918882C892C912CFF30FA057F
:10391600FF30FB057F30FC05FF30FD050310F90C79
:103926007908F400F501F601F70118300310F40DDB
:10393600F50DF60DF70DFF3E031D992C7408FA04DC
:103946007508FB047608FC047708FD04780803195B
:10395600AD2CAE2CB32CF31FB12CB22CB32CFD170F
:103966007D08F3007C08F2007B08F1007A08F0007D
:10397600080083160313B90039080319C32CC42C95
:10398600D82CB41FC72CC82CD82C3109BB0032093F
:10399600BC003309BD003409BE00BB0A0319BC0ACA
:1039A6000319BD0A0319BE0AE02C3408BE00330809
:1039B600BD003208BC003108BB00340833043204B1
:1039C6003104031DE72CE82CF12C0030B400003044
:1039D600B3000030B2000030B100772D9630B5004C
:1039E6003508BA00032D0130B5003508BA07013095
:1039F6000310BE0CBD0CBC0CBB0CFF3E031DFB2C08
:103A0600FE303E05031D082D092DF62C252D01300F
:103A1600B5003508BA070130BB070030031801307E
:103A2600BC07003003180130BD0700300318013011
:103A3600BE0701300310BE0CBD0CBC0CBB0CFF3E18
:103A4600031D1D2DFF303E05031D2A2D2B2D0A2D8E
:103A5600372D0130BA020130B5000310BB0DBC0D85
:103A6600BD0DBE0DB50B302DBD1B3A2D3B2D412D89
:103A760002303A020318402D412D2C2D3A18442DC0
:103A8600452D4D2DFF30BB05FF30BC057F30BD05F4
:103A9600FF30BE050310BA0C3A08B500B601B701EF
:103AA600B80118300310B50DB60DB70DB80DFF3EB1
:103AB600031D552D3508BB043608BC043708BD0464
:103AC6003808BE0439080319692D6A2D6F2DB41FF5
:103AD6006D2D6E2D6F2DBE173E08B4003D08B30048
:103AE6003C08B2003B08B1000800831203135708D4
:103AF6008039DC005C08E4005708DC005C07DD0068
:103B06005D08E600D61F882D892D8A2D6614660865
:103B160003198E2D8F2D9F2D660A031D932D942D2F
:103B26009C2D0030D7000030D6000030D500003084
:103B3600D400D617D701A72D0030D7000030D60005
:103B46000030D5000030D4005B088039DC005C080A
:103B5600E500650864060319B12DB22DB32D64176F
:103B66005B08DC005C07DD005D08E500DA1FBC2DA4
:103B7600BD2DBE2D651465080319C22DC32DD32D89
:103B8600650A031DC72DC82DD02D0030DB0000307F
:103B9600DA000030D9000030D800DA17DB01DB2D5F
:103BA6000030DB000030DA000030D9000030D800E9
:103BB600660865020318E02DE12D252E641FE42D0D
:103BC600E52DE92D8030DC005C08E4066608DC00A3
:103BD6005C08E7006508DC005C08E6006708DC00B6
:103BE6005C08E5005408DC005C08E7005808DC00C7
:103BF6005C08D4006708DC005C08D8005508DC00C7
:103C06005C08E7005908DC005C08D5006708DC00A2
:103C16005C08D9005608DC005C08E7005A08DC009E
:103C26005C08D6006708DC005C08DA005708DC0090
:103C36005C08E7005B08DC005C08D7006708DC006E
:103C46005C08DB00E7016508DC00DD015D08DF00DC
:103C560066085C02DE00031CDF035F08803AFF0093
:103C660080307F02031D392E1A305E02031C3C2E63
:103C76003D2E7A2E83120313570856045504540416
:103C8600031D462E482E0130492E0030DC005C080C
:103C9600E7000030D7000030D6000030D5000030F5
:103CA600D4006508DC005C08E600822E671C5C2EEA
:103CB6005D2E662E6708DC0003105C0C0138DD0003
:103CC6005D08E700682E0310E70C541C6B2E6C2E63
:103CD6006D2EE7170130DC00570DD70CD60CD50C2E
:103CE600D40CDC0B6F2E0130DC005C08E607831277
:103CF600031365086602031C812E822E592E641B4F
:103D0600852E862ED12E6608031D8A2E8B2E942E86
:103D16000030D7000030D6000030D5000030D40087
:103D2600FF2F5808D407590803110318013E031939
:103D36009D2ED5075A0803110318013E0319A42E18
:103D4600D6075B0803110318013E0319AB2ED707EC
:103D5600571CAE2EAF2E852F671CB22EB32EBC2E4F
:103D66006708DC0003105C0C0138DD005D08E70025
:103D7600BE2E0310E70C541CC12EC22EC32EE7170D
:103D86000130DC00570DD70CD60CD50CD40CDC0B4F
:103D9600C52E0130DC005C08E607852F5708803AFF
:103DA600FF005B08803A7F02031DE32E5A08560285
:103DB600031DE32E59085502031DE32E580854022D
:103DC6000318E62EE72E3F2FFF30DC00FF30DD0024
:103DD600FF30DE00FF30DF005808E0005908E10040
:103DE6005A08E2005B08E3005408E0025508031C89
:103DF600550FFE2EFF2EE1025608031C560F042F08
:103E0600052FE2025708031C570F0A2F0B2FE30258
:103E16006008DC0761080318610F122F132FDD07F6
:103E260062080318620F182F192FDE07630803189C
:103E3600630ADF075F08D7005E08D6005D08D50075
:103E46005C08D4008030DC005C08E406E709E70A79
:103E56006708031D2F2F302F4D2F0130D407003058
:103E660003180130D507003003180130D60700309B
:103E760003180130D7074D2F5808D4025908031CE0
:103E8600590FD5025A08031C5A0FD6025B08031CA9
:103E96005B0FD7025708560455045404031D542FCC
:103EA600552F812F6708031D592F5A2F812F003058
:103EB600D7000030D6000030D5000030D400FF2FE8
:103EC6000130DC000310D40DD50DD60DD70DDC0B5B
:103ED600652FE71F6F2F702F712F5414671C742FD7
:103EE600752F782F0314E70D7A2F0310E70D660858
:103EF60003197E2F7F2F812F0130E602D61F842FD4
:103F0600852F632FE501E71F892F8A2F982F6708D2
:103F16007F3903198F2F902F932FE501E50A982FEC
:103F2600541C962F972F982F902F650803199C2FB6
:103F36009D2FD12F0130D407003003180130D5074B
:103F4600003003180130D607003003180130D707B8
:103F5600571CAE2FAF2FD12F5408DC005508DD00BB
:103F66005608DE005708DF000130E0005F0DDF0C69
:103F7600DE0CDD0CDC0CE00BB92F5F08D7005E0809
:103F8600D6005D08D5005C08D400660A0319CC2F5C
:103F9600CD2FD12F0130DC005C08E607660A031935
:103FA600D52FD62FDB2F6608031DDA2FDB2FE92F3F
:103FB6000030D7000030D6000030D5000030D400E5
:103FC6006608031DE72FE82FE92FE401661CEC2F96
:103FD600ED2FEF2FD617F32F7F30DC005C08D605C8
:103FE6006608DC0003105C0CDD005D08D700E41FEA
:103FF600FD2FFE2FFF2FD7170800FF3FFF3FFF3F84
:02400600FF3F7A
:04400E00D420FF3F7C
:00000001FF
